:020000022000DC
:10700000C07C01201D47030097540700F146030090
:10701000F1460300F1460300F146030000000000C2
:1070200000000000000000000000000049430300D1
:10703000F146030000000000F1420300F1460300A6
:10704000FD43030017850700FD430300FD430300D4
:10705000FD430300FD430300FD430300FD43030024
:10706000C5840700FD430300FD430300FD840700C2
:10707000FD430300FD430300FD430300FD43030004
:10708000FD430300FD430300FD430300FD430300F4
:10709000FD430300FD430300FD430300FD430300E4
:1070A000FD430300FD430300FD430300FD430300D4
:1070B000FD430300FD430300FD430300FD430300C4
:1070C000FD430300FD430300FD430300FD430300B4
:1070D000FD430300FD430300FD430300FD430300A4
:1070E000FD430300FD430300FD430300FD43030094
:1070F000FD430300FD430300FD430300FD43030084
:1071000001F0FF01102A2BDB10F0070F08D010F858
:10711000013B013A8B422DD010F0070F42B3F6D15C
:10712000F0B441EA012141EA014122F007047FF075
:1071300000070023F0E80256083C85EA010586EACC
:10714000010685FA47F5A3FA87F586FA47F6A5FA08
:1071500087F68EB9EED1F0BC01F0FF0102F0070214
:1071600032B110F8013B013A83EA010313B1F8D1BF
:107170000020704701387047002D06BF35460338A0
:10718000073815F0010F07D1013015F4807F02BFD9
:10719000013015F4C03F0130F0BC0138704700BF2A
:1071A00081F0004102E000BF83F0004330B54FEAB8
:1071B00041044FEA430594EA050F08BF90EA020F25
:1071C0001FBF54EA000C55EA020C7FEA645C7FEAB8
:1071D000655C00F0E2804FEA5454D4EB5555B8BFDB
:1071E0006D420CDD2C4480EA020281EA030382EA4C
:1071F000000083EA010180EA020281EA0303362DDE
:1072000088BF30BD11F0004F4FEA01314FF4801CB0
:107210004CEA113102D0404261EB410113F0004FC2
:107220004FEA03334CEA133302D0524263EB430379
:1072300094EA050F00F0A780A4F10104D5F1200E17
:107240000DDB02FA0EFC22FA05F2801841F1000172
:1072500003FA0EF2801843FA05F359410EE0A5F146
:1072600020050EF1200E012A03FA0EFC28BF4CF077
:10727000020C43FA05F3C01851EBE37101F000452D
:1072800007D54FF0000EDCF1000C7EEB00006EEB3A
:107290000101B1F5801F1BD3B1F5001F0CD34908C4
:1072A0005FEA30004FEA3C0C04F101044FEA44521B
:1072B00012F5800F80F09A80BCF1004F08BF5FEAA2
:1072C000500C50F1000041EB045141EA050130BD82
:1072D0005FEA4C0C404141EB0101013C28BFB1F594
:1072E000801FE9D291F0000F04BF01460020B1FADF
:1072F00081F308BF2033A3F10B03B3F120020CDAB2
:107300000C3208DD02F1140CC2F10C0201FA0CF08F
:1073100021FA02F10CE002F11402D8BFC2F1200CF4
:1073200001FA02F120FA0CFCDCBF41EA0C019040AA
:10733000E41AA2BF01EB0451294330BD6FEA0404F3
:107340001F3C1CDA0C340EDC04F11404C4F12002DE
:1073500020FA04F001FA02F340EA030021FA04F3F0
:1073600045EA030130BDC4F10C04C4F1200220FA47
:1073700002F001FA04F340EA0300294630BD21FA85
:1073800004F0294630BD94F0000F83F4801306BF4B
:1073900081F480110134013D4EE77FEA645C18BF3F
:1073A0007FEA655C29D094EA050F08BF90EA020FD6
:1073B00005D054EA000C04BF1946104630BD91EACE
:1073C000030F1EBF0021002030BD5FEA545C05D1D1
:1073D0004000494128BF41F0004130BD14F5800410
:1073E0003CBF01F5801130BD01F0004545F0FE4184
:1073F00041F470014FF0000030BD7FEA645C1ABFB9
:10740000194610467FEA655C1CBF0B46024650EAEF
:10741000013406BF52EA033591EA030F41F400211B
:1074200030BD00BF90F0000F04BF0021704730B5A1
:107430004FF4806404F132044FF000054FF0000176
:1074400050E700BF90F0000F04BF0021704730B537
:107450004FF4806404F1320410F0004548BF40420C
:107460004FF000013EE700BF42004FEAE2014FEA61
:1074700031014FEA02701FBF12F07F4393F07F4F3C
:1074800081F06051704732F07F4208BF704793F03F
:107490007F4F04BF41F40021704730B54FF4607452
:1074A00001F0004521F000411CE700BF50EA010255
:1074B00008BF704730B54FF000050AE050EA0102FE
:1074C00008BF704730B511F0004502D5404261EB6E
:1074D00041014FF4806404F132045FEA915C3FF4AF
:1074E000D8AE4FF003025FEADC0C18BF03325FEA4C
:1074F000DC0C18BF033202EBDC02C2F1200300FAFD
:1075000003FC20FA02F001FA03FE40EA0E0021FA21
:1075100002F11444BDE600BF70B54FF0FF0C4CF40F
:10752000E06C1CEA11541DBF1CEA135594EA0C0FC1
:1075300095EA0C0F00F0DEF82C4481EA030621EAFC
:107540004C5123EA4C5350EA013518BF52EA033537
:1075500041F4801143F4801338D0A0FB02CE4FF0E9
:107560000005E1FB02E506F00042E0FB03E54FF019
:107570000006E1FB03569CF0000F18BF4EF0010E11
:10758000A4F1FF04B6F5007F64F5407404D25FEA0D
:107590004E0E6D4146EB060642EAC62141EA5551C0
:1075A0004FEAC52040EA5E504FEACE2EB4F1FD0C02
:1075B00088BFBCF5E06F1ED8BEF1004F08BF5FEA80
:1075C000500E50F1000041EB045170BD06F0004632
:1075D00046EA010140EA020081EA0301B4EB5C04DF
:1075E000C2BFD4EB0C0541EA045170BD41F48011D7
:1075F0004FF0000E013C00F3AB8014F1360FDEBFFC
:10760000002001F0004170BDC4F10004203C35DAD7
:107610000C341BDC04F11404C4F1200500FA05F35A
:1076200020FA04F001FA05F240EA020001F00042FB
:1076300021F0004110EBD37021FA04F642EB060171
:107640005EEA430E08BF20EAD37070BDC4F10C049B
:10765000C4F1200500FA04F320FA05F001FA04F25F
:1076600040EA020001F0004110EBD37041F100014B
:107670005EEA430E08BF20EAD37070BDC4F1200556
:1076800000FA05F24EEA020E20FA04F301FA05F2BE
:1076900043EA020321FA04F001F0004121FA04F266
:1076A00020EA020000EBD3705EEA430E08BF20EA36
:1076B000D37070BD94F0000F0FD101F00046400070
:1076C00041EB010111F4801F08BF013CF7D041EAF2
:1076D000060195F0000F18BF704703F000465200F6
:1076E00043EB030313F4801F08BF013DF7D043EAC7
:1076F0000603704794EA0C0F0CEA135518BF95EA7D
:107700000C0F0CD050EA410618BF52EA4306D1D103
:1077100081EA030101F000414FF0000070BD50EA22
:10772000410606BF1046194652EA430619D094EAAC
:107730000C0F02D150EA013613D195EA0C0F05D196
:1077400052EA03361CBF104619460AD181EA0301EA
:1077500001F0004141F0FE4141F470014FF00000A2
:1077600070BD41F0FE4141F4780170BD70B54FF03D
:10777000FF0C4CF4E06C1CEA11541DBF1CEA1355BD
:1077800094EA0C0F95EA0C0F00F0A7F8A4EB05049F
:1077900081EA030E52EA03354FEA013100F0888096
:1077A0004FEA03334FF0805545EA131343EA12635F
:1077B0004FEA022245EA111545EA10654FEA002614
:1077C0000EF000419D4208BF964244F1FD0404F5CD
:1077D000407402D25B084FEA3202B61A65EB030529
:1077E0005B084FEA32024FF480104FF4002CB6EBE6
:1077F000020E75EB030E22BFB61A754640EA0C0066
:107800005B084FEA3202B6EB020E75EB030E22BFA5
:10781000B61A754640EA5C005B084FEA3202B6EBE6
:10782000020E75EB030E22BFB61A754640EA9C00A5
:107830005B084FEA3202B6EB020E75EB030E22BF75
:10784000B61A754640EADC0055EA060E18D04FEA33
:10785000051545EA16754FEA06164FEAC30343EAD3
:1078600052734FEAC2025FEA1C1CC0D111F4801FA0
:107870000BD141EA00014FF000004FF0004CB6E799
:1078800011F4801F04BF01430020B4F1FD0C88BF38
:10789000BCF5E06F3FF6AFAEB5EB030C04BFB6EB43
:1078A000020C5FEA500C50F1000041EB045170BD36
:1078B0000EF0004E4EEA113114EB5C04C2BFD4EB63
:1078C0000C0541EA045170BD41F480114FF0000EE7
:1078D000013C90E645EA060E8DE60CEA135594EA63
:1078E0000C0F08BF95EA0C0F3FF43BAF94EA0C0F66
:1078F0000AD150EA01347FF434AF95EA0C0F7FF4DB
:1079000025AF104619462CE795EA0C0F06D152EA2E
:1079100003353FF4FDAE1046194622E750EA410612
:1079200018BF52EA43067FF4C5AE50EA41047FF423
:107930000DAF52EA43057FF4EBAE12E74FEA410286
:1079400012F5001215D211D56FF47873B3EB6252B1
:1079500012D94FEAC12343F0004343EA505311F0D8
:10796000004F23FA02F018BF404270474FF000006A
:10797000704750EA013005D111F0004008BF6FF0A8
:10798000004070474FF00000704700BF4FEA4102CF
:10799000B2F1E04324BFB3F5001CDCF1FE5C0DD96D
:1079A00001F0004C4FEAC0024CEA5070B2F1004FB7
:1079B00040EB830008BF20F00100704711F0804FBA
:1079C00021D113F13872BCBF01F00040704741F47F
:1079D00080114FEA5252C2F11802C2F1200C10FA83
:1079E0000CF320FA02F018BF40F001004FEAC12367
:1079F0004FEAD32303FA0CFC40EA0C0023FA02F30B
:107A00004FEA4303CCE77FEA625307D150EA0133E0
:107A10001EBF4FF0FE4040F44000704701F00040B0
:107A200040F0FE4040F40000704700BF7BB972B9DF
:107A30000029BEBF00204FF0004106E008BF00282B
:107A40001CBF6FF000414FF0FF3000F057B8ADF1B0
:107A5000080C6DE904CE002909DB002B1ADB06F0C7
:107A600053F8DDF804E0DDE9022304B0704740423A
:107A700061EB4101002B1BDB06F046F8DDF804E06A
:107A8000DDE9022304B0404261EB4101524263EB65
:107A900043037047524263EB430306F035F8DDF8C9
:107AA00004E0DDE9022304B0404261EB410170478C
:107AB000524263EB430306F027F8DDF804E0DDE90A
:107AC000022304B0524263EB4303704753B94AB9EF
:107AD000002908BF00281CBF4FF0FF314FF0FF30D6
:107AE00000F00CB8ADF1080C6DE904CE06F00CF80E
:107AF000DDF804E0DDE9022304B07047704700BF01
:107B00002DE9F14F03F11C0402EB840C4FEA930BB7
:107B10008A68CB680868496800F046F93CE9F000DB
:107B20006040694072407B400BF1060E4EE083EAF4
:107B3000134480EA134582EA134746BA96EA34446E
:107B4000604000F00F1684EA063420F00F1684EA35
:107B5000161054BA94EA0106724002F00F1486EA35
:107B6000043622F00F1486EA14124CBA65406940BC
:107B700001F00F1485EA043521F00F1485EA141181
:107B80005CBA67407B4003F00F1487EA043723F0A8
:107B90000F1487EA141344BA44404DBA4D4056BA04
:107BA00056405FBA5F4087EA174886EA174B84EA77
:107BB00017464FEA38488BEA1B4485EA1B4788EA98
:107BC0001B4580EA3440694072407B4000F07034CD
:107BD00000F0803500F00F3040EA440040EAD50064
:107BE00080EA900404F0332480EA8400604001F0CD
:107BF000703401F0803501F00F3141EA440141EA6F
:107C0000D50181EA910404F0332481EA84016140C2
:107C100002F0703402F0803502F00F3242EA440282
:107C200042EAD50282EA920404F0332482EA840212
:107C3000624003F0703403F0803503F00F3343EA01
:107C4000440343EAD50383EA930404F0332483EA2C
:107C500084036340C943DB4381EA000483EA0446AA
:107C600086EA020183EA014382EA334583EA144348
:107C70005C4084EA00077FEA040A8AEA024A8AEA48
:107C8000010B87EA11488AEA374A80EA060181EA4D
:107C90001A418AEA030A04EA0A00454088EA04070E
:107CA00007EA0B0041408AEA0B0608EA060084EA6C
:107CB00034428AEA3A4602EA0603584045404140C7
:107CC00087EA37438BEA3B4003EA000985EA090566
:107CD00082EA0309464006EA0906714085EA010086
:107CE00005EA3546464006EA314181EA304181EAFB
:107CF000364606EA304686EA354634400F4086EA84
:107D0000010508EA050886EA3640024088EA0208CA
:107D100081EA314213405C4080EA020309EA030928
:107D200087EA0907674088EA040806EA0A0601EAC2
:107D30000B018AEA0B0425408AEA3A442040454078
:107D40008BEA3B4B02EA0B02564084EA0B042340C9
:107D500059406E40694087EA364080EA384080EA00
:107D6000060380EA104481EA134585EA344585EA32
:107D700017427D4082EA354180EA05403CE9F00047
:107D80006040694072407B40BEF1010E3FF6CFAECD
:107D900020BC00F05FF828606960AA60EB60BDE875
:107DA000F08F00BF00F000BA80EA101404F0F01465
:107DB00080EA0410604081EA111404F0F01481EAB2
:107DC0000411614082EA121404F0F01482EA0412F1
:107DD000624083EA131404F0F01483EA041363404E
:107DE00080EA102404F47F4480EA0420604081EAA1
:107DF000112404F47F4481EA0421614082EA1224C0
:107E000004F47F4482EA0422624083EA132404F4E7
:107E10007F4483EA0423634081EA500404F055342C
:107E200080EA4400614083EA520404F0553482EA57
:107E30004402634082EA900404F0333480EA840010
:107E4000624083EA910404F0333481EA84016340A0
:107E5000704700BF82EA900404F0333480EA840063
:107E6000624083EA910404F0333481EA8401634080
:107E700081EA500404F0553480EA4400614083EA0A
:107E8000520404F0553482EA4402634080EA10242C
:107E900004F47F4480EA0420604081EA112404F461
:107EA0007F4481EA0421614082EA122404F47F4481
:107EB00082EA0422624083EA132404F47F4483EAC2
:107EC0000423634080EA101404F0F01480EA0410E4
:107ED000604081EA111404F0F01481EA0411614059
:107EE00082EA121404F0F01482EA0412624083EA77
:107EF000131404F0F01483EA04136340704700BFC6
:107F00002DE9F14F94464FEA930B8A68CB680868D5
:107F10004968FFF749FF0BF1060E33E083EA13448B
:107F200080EA134582EA134746BA96EA3444604031
:107F300000F00F1684EA063420F00F1684EA1610BB
:107F400054BA94EA0106724002F00F1486EA04362D
:107F500022F00F1486EA14124CBA6540694001F011
:107F60000F1485EA043521F00F1485EA14115CBA68
:107F700067407B4003F00F1487EA043723F00F14A7
:107F800087EA1413BCE8F0006040694072407B400F
:107F900000F0E03400F0103500F00F3040EA5400FB
:107FA00040EAC50080EA900404F0332480EA8400AB
:107FB000604001F0E03401F0103501F00F3141EA8A
:107FC000540141EAC50181EA910404F0332481EAB5
:107FD0008401614002F0E03402F0103502F00F320B
:107FE00042EA540242EAC50282EA920404F03324CF
:107FF00082EA8402624003F0E03403F0103503F0BB
:108000000F3343EA540343EAC50383EA930404F0BD
:10801000332483EA8403634081EA324787EA1345C5
:1080200081EA354690EA060484EA034B82EA1B4261
:1080300080EA044484EA054483EA144A85EA144445
:108040008BEA044B84EA374481EA0B4181EA16410A
:1080500004EA0A00454082EA04082BEA080041408D
:108060008AEA0B0602EA060084EA34438AEA3A46C0
:1080700003EA060778404540414088EA38478BEAE2
:108080003B4007EA000985EA090583EA07094640FB
:1080900006EA0906714085EA010005EA35464640D0
:1080A00006EA314181EA304181EA364606EA304645
:1080B00086EA3546344008EA010886EA01052A4086
:1080C00086EA364003405A4081EA31431F407C40F3
:1080D00080EA030709EA070988EA0908544088EAA0
:1080E000020806EA0A0601EA0B018AEA0B021540B9
:1080F0008AEA3A42104045408BEA3B4003405E40EA
:108100004240174079404D404E40E443F64386EAF2
:1081100018435D4085EA054083EA134386EA03413C
:1081200083EA384284EA114383EA04435FEA334333
:10813000BEF1010E3FF6F2AE1ED4BCE8F000604086
:10814000694072407B4020BCFFF784FE2860696074
:10815000AA60EB60BDE8F08F2DE9E0414FF2F0023C
:1081600080EA1031114080EA01304840410882081D
:10817000C3084FF0000E4FE700F0113001F011314D
:1081800002F0113203F0113340EA410040EA82006C
:1081900040EAC3004FF2F00280EA1031114080EA59
:1081A00001304840BDE8E0812DE9F04F02F11C05A7
:1081B0000646074600EB850851F8040B043A46F8DA
:1081C000040BF9D14FF0010CFFF7C6FF5FEA302036
:1081D00080EA0C001ECF41404A4053405C401EC61E
:1081E0002000464517D04FEA4C0C1CF4807F18BF86
:1081F000ACF1E50C2C2DE7D03C2D06D1FFF7ACFF00
:1082000006CF41404A4006C6100006CF41404A40D2
:1082100006C61000D8E736E90F00FFF7C5FD043D9C
:1082200086E80F00F7D1BDE8F08F00BF2DE9F0031D
:1082300091E8F801B2E802125B1854EB090455EB1F
:108240000C05B2E802124E4157EB090758EB0C0837
:1082500080E8F80180410130BDE8F003704700BFBD
:108260002DE9F00391E8F801B2E802125B1A74EB11
:10827000090475EB0C05B2E802128E4177EB090791
:1082800078EB0C0880E8F80180414042BDE8F0033B
:10829000704700BF2DE9F001524290E83800B1E884
:1082A000C00116409B1917407C4118EA020855EBA3
:1082B000080538C090E8380091E8C00116407341C5
:1082C00017407C4118EA020855EB080538C0804188
:1082D0000130BDE8F00170472DE9F001524290E80D
:1082E0003800B1E8C00116409B1B1740BC4118EA9A
:1082F000020875EB080538C090E8380091E8C00125
:108300001640B3411740BC4118EA020875EB080556
:1083100038C080414042BDE8F00170472DE9F001CE
:1083200052424FF0030890E8300091E8C000A31BD0
:108330001340E41AF618EB1B1340ED1AFF1830C077
:10834000C0C1B8F10108EED1BDE8F001704700BF2F
:1083500092E8F0032DE9F003B1E8001E06C906B467
:10836000A9FB04120891AAFB0403E9FB6520EBFBBF
:1083700064300992AAFB0521ECFB6401E9FB66323B
:10838000EAFB6602EBFB66120A93A9FB0743EAFBD2
:108390006713EBFB6723EBFB6504ECFB6514EAFB5F
:1083A0006824EBFB6834A9FB0865DDF81C80E9FB59
:1083B0006825EAFB6835EBFB6845BDE8000EE9FB84
:1083C0006B16EAFB6B26ECFB6736E9FB6746EAFBBC
:1083D00067565DF804BBA9FB0B87EAFB6B37DDF83A
:1083E00008B0ECFB6B47E9FB6B57EAFB6B675DF88A
:1083F00004BBECFB6B28E9FB6B38EAFB6B4802B073
:108400005DF804BBECFB6B58E9FB6B68EAFB6B782F
:10841000704700BF2DE9F14F83B0FFF799FFDDF8FA
:108420000C9009F10C0989E8FF010FBC83E80700F3
:10843000BDE8F08F91E8801FA7FB07120091A8FB11
:108440000703E7FB6820E7FB69300192A7FB0921DE
:10845000E7FB6A01E8FB6832E7FB6A02E7FB6B12A5
:108460000293A8FB0943E7FB6B13E7FB6C23E8FBD4
:108470006904E8FB6A14E7FB6C24E8FB6C34A8FB96
:108480000A65E8FB6B25E8FB6C35E9FB6C45E9FB0D
:108490006916E8FB6B26E9FB6B36E9FB6C46EAFBE9
:1084A0006C56A9FB0A87E9FB6B37EAFB6B47EAFBD3
:1084B0006C57EBFB6C67E9FB6A28EAFB6A38EAFB5E
:1084C0006B48EBFB6B58EBFB6C68ECFB6C78704714
:1084D0002DE9F14F83B0FFF7ADFFDDF80C9009F106
:1084E0000C0989E8FF010FBC83E80700BDE8F08FA5
:1084F0002DE9F00391E8F803B2E802105B1854EBA1
:108500000C04B2E802104D4156EB0C0692E806103E
:108510004F4158EB020859EB0C0980E8F803804101
:108520000130BDE8F00370472DE9F00391E8F8034E
:10853000B2E802105B1A74EB0C04B2E802108D4131
:1085400076EB0C0692E806108F4178EB020879EB87
:108550000C0980E8F80380414042BDE8F003704711
:108560002DE9F003524290E83800B1E8800317404B
:10857000DB1918EA020854EB080419EA020955EB62
:10858000090538C090E8780091E8820311404B411A
:1085900017407C4118EA020855EB080519EA020960
:1085A00056EB090678C080410130BDE8F003704702
:1085B0002DE9F003524290E83800B1E880031740FB
:1085C000DB1B18EA020874EB080419EA020975EBD0
:1085D000090538C090E8780091E8820311408B418A
:1085E0001740BC4118EA020875EB080519EA0209B0
:1085F00076EB090678C080414042BDE8F003704741
:108600002DE9F00152424FF0030890E8300091E864
:10861000C000A31B1340E41AF618EB1B1340ED1A1D
:10862000FF1830C0C0C1B8F10108EED104680E686F
:10863000A31B1340E41AF61804600E60BDE8F001B5
:10864000704700BF00B592E8C40F2DE9C40FB1E830
:10865000005E02B4A9FB02500995AAFB0234E9FBB3
:108660006603EBFB62430A90AAFB0605ECFB62354E
:10867000E9FB6740E9FB6830EEFB62500B94AAFB14
:108680000721EAFB6851EBFB6801DDF81480EBFB86
:108690006632ECFB6652EAFB6802EBFB68120C9355
:1086A000A9FB0843DDF81880E9FB6803EAFB6813BF
:1086B000EBFB6823EBFB6754EEFB6604DDF81C80E4
:1086C000E9FB6814EAFB6824EBFB68340D955DF860
:1086D000049B99E8000CACFB0765DDF80C90ECFB03
:1086E0006915EEFB6925EAFB6935EBFB6945DDF8A9
:1086F0000090EAFB6906EBFB6916DDF81090ECFBD5
:108700006926EEFB6936EAFB6946EBFB6956DDF844
:108710000490AAFB0987EBFB6927DDF81490ECFBBA
:108720006937EEFB6947EAFB6957EBFB6967DDF8E0
:108730000890EEFB6918EAFB6928EBFB6938DDF865
:108740001890ECFB6948EEFB6958EAFB6968EBFBA3
:10875000697807B000BD00BF2DE9F14F85B0FFF784
:1087600071FFDDF8149009F1140989E8FF013FBC9D
:1087700085E81F00BDE8F08F00B591E8805FA7FB9A
:1087800007500195A7FB0834E7FB6803E7FB694343
:108790000290A7FB0905E7FB6A35E8FB6840E7FBA9
:1087A0006A30E7FB6B500394A8FB0921E7FB6B5190
:1087B000E7FB6C01E8FB6932E8FB6A52E7FB6C02FD
:1087C000E7FB6E120493A8FB0A43E8FB6B03E7FB8D
:1087D0006E13E8FB6E23E9FB6954E8FB6B04E8FBCE
:1087E0006C14E8FB6E24E9FB6E340595A9FB0A6561
:1087F000E8FB6C15E9FB6C25E9FB6E35EAFB6E4581
:10880000E9FB6A06E9FB6B16E9FB6C26EAFB6C36B2
:10881000EAFB6E46EBFB6E56A9FB0B87EAFB6B2768
:10882000EAFB6C37EBFB6C47EBFB6E57ECFB6E67C0
:10883000EAFB6A18EAFB6B28EBFB6B38EBFB6C4836
:10884000ECFB6C58ECFB6E68EEFB6E7800BD00BF75
:108850002DE9F14F85B0FFF78FFFDDF8149009F196
:10886000140989E8FF013FBC85E81F00BDE8F08FCF
:108870002DE9F00791E8F807B2E802105B1854EB15
:108880000C04B2E802104D4156EB0C06B2E802109F
:108890004F4158EB0C08B2E8021059EB01095AEBB2
:1088A0000C0A80E8F80780410130BDE8F007704706
:1088B0002DE9F00791E8F807B2E802105B1A74EBB3
:1088C0000C04B2E802108D4176EB0C06B2E80210FF
:1088D0008F4178EB0C08B2E8021079EB01097AEBD2
:1088E0000C0A80E8F80780414042BDE8F007704775
:1088F0002DE9F007524290E87800B1E88007174070
:10890000DB1918EA020854EB080419EA020955EBCE
:1089100009051AEA020A56EB0A0678C090E87800C0
:10892000B1E8800717407B4118EA020854EB0804BD
:1089300019EA020955EB09051AEA020A56EB0A067A
:1089400078C080410130BDE8F00770472DE9F0079D
:10895000524290E87800B1E880071740DB1B18EA24
:10896000020874EB080419EA020975EB09051AEA12
:10897000020A76EB0A0678C090E87800B1E8800732
:108980001740BB4118EA020874EB080419EA02090F
:1089900075EB09051AEA020A76EB0A0678C08041EF
:1089A0004042BDE8F00770472DE9F00152424FF018
:1089B000040890E8300091E8C000A31B1340E41ABB
:1089C000F618EB1B1340ED1AFF1830C0C0C1B8F108
:1089D0000108EED1BDE8F001704700BF00B592E894
:1089E000DC072DE9DC07B1E8805702B4A7FB025190
:1089F0000A95A8FB020BE7FB6310E9FB62B00B9141
:108A0000A8FB0351EAFB6201E7FB64B5E7FB6605DF
:108A1000E8FB6615CDF830B0A9FB03B6EAFB631698
:108A2000ECFB6356E8FB640BE9FB641BEAFB645B4D
:108A3000ECFB646B0D90ACFB0230059CEEFB6250CE
:108A4000E9FB6460EAFB64B0E7FB6431E8FB645176
:108A5000069CE8FB6461E9FB64B1EAFB64010E93E8
:108A6000A7FB0432079CE7FB6462E8FB64B2E9FB06
:108A70006402EAFB6412049CE9FB6453EAFB64634E
:108A8000089CE7FB64B3E8FB6403E9FB6413EAFBBF
:108A900064230F955DF8049B99E80006DDF80080DB
:108AA000A9FB0854EAFB68B4DDF81080ECFB68040D
:108AB000EEFB6814E9FB6824EAFB6834DDF8048007
:108AC000EEFB6865E9FB68B5EAFB6805DDF8148034
:108AD000ECFB6815EEFB6825E9FB6835EAFB6845A9
:108AE0000F96DDF80880AEFB0876E9FB6806EAFB26
:108AF0006816DDF81880ECFB6826EEFB6836E9FBAB
:108B00006846EAFB6856DDF80C80ECFB68B7EEFBC4
:108B10006807E9FB6817EAFB6827DDF81C80ECFBB7
:108B20006837EEFB6847E9FB6857EAFB686708B0FF
:108B300000BD00BF2DE9F14F87B0FFF74FFFDDF813
:108B40001C8008F1200888E8FF00FFBC87E87F0848
:108B5000BDE8F08F00B591E89857A3FB035201954B
:108B6000A3FB0401E3FB6420E3FB67100292A3FB79
:108B70000752E3FB6802E4FB6415E3FB6805E3FBD3
:108B800069250391A4FB07B6E3FB6926E3FB6A565C
:108B9000E4FB670BE4FB682BE3FB6A5BE3FB6C6BBA
:108BA0000490A4FB0810E4FB6950E3FB6C60E3FB5A
:108BB0006EB0E7FB6721E4FB6951E4FB6A61E3FB0C
:108BC0006EB1E4FB6E010592A7FB0832E4FB6A621A
:108BD000E4FB6CB2E4FB6E02E7FB6E12E7FB68534A
:108BE000E7FB6963E4FB6CB3E7FB6C03E7FB6E1325
:108BF000E8FB6E230695A7FB0954E7FB6AB4E7FB85
:108C00006C04E8FB6C14E8FB6E24E9FB6E34E8FBB3
:108C10006865E7FB6AB5E8FB6A05E8FB6C15E9FBEC
:108C20006C25E9FB6E35EAFB6E450796A8FB0976D5
:108C3000E8FB6A06E9FB6A16E9FB6C26EAFB6C3680
:108C4000EAFB6E46ECFB6E56E8FB69B7E9FB690789
:108C5000E9FB6A17EAFB6A27EAFB6C37ECFB6C4717
:108C6000ECFB6E57EEFB6E6700BD00BF2DE9F14FC8
:108C700087B0FFF76FFFDDF81C8008F1200888E857
:108C8000FF00FFBC87E87F08BDE8F08F2DE9F00FFB
:108C9000B1E8F801B2E8001E13EB090354EB0A0433
:108CA00055EB0B0556EB0C06B2E8001E57EB090717
:108CB00058EB0A08A0E8F80191E8F80153EB0B0320
:108CC00054EB0C0492E8001E55EB090556EB0A061E
:108CD00057EB0B0758EB0C0880E8F8018041013096
:108CE000BDE8F00F704700BF2DE9F00FB1E8F801C3
:108CF000B2E8001EB3EB090374EB0A0475EB0B0535
:108D000076EB0C06B2E8001E77EB090778EB0A0851
:108D1000A0E8F80191E8F80173EB0B0374EB0C0485
:108D200092E8001E75EB090576EB0A0677EB0B0758
:108D300078EB0C0880E8F80180414042BDE8F00F74
:108D4000704700BF2DE9F007524290E87800B1E883
:108D500080071740DB1918EA020854EB080419EAE7
:108D6000020955EB09051AEA020A56EB0A0678C011
:108D700090E87800B1E8800717407B4118EA0208C4
:108D800054EB080419EA020955EB09051AEA020A2C
:108D900056EB0A0678C090E87800B1E880071740E3
:108DA0007B4118EA020854EB080419EA020955EB62
:108DB00009051AEA020A56EB0A0678C0804101301A
:108DC000BDE8F007704700BF2DE9F007524290E878
:108DD0007800B1E880071740DB1B18EA020874EB43
:108DE000080419EA020975EB09051AEA020A76EB8A
:108DF0000A0678C090E87800B1E880071740BB41C8
:108E000018EA020874EB080419EA020975EB09056F
:108E10001AEA020A76EB0A0678C090E87800B1E810
:108E200080071740BB4118EA020874EB080419EAEE
:108E3000020975EB09051AEA020A76EB0A0678C000
:108E400080414042BDE8F007704700BF2DE9F001C6
:108E500052424FF0060890E8300091E8C000A31B92
:108E60001340E41AF618EB1B1340ED1AFF1830C03C
:108E7000C0C1B8F10108EED1BDE8F001704700BFF4
:108E800003B5B2E8005E92E8FC012DE9FC012DE992
:108E9000005E0FC9A0FB0967A1FB0958E0FB6A75DA
:108EA000E2FB69850C9CC4E90067A1FB0A76E3FB41
:108EB0006956E0FB6B87E1FB6B57E2FB6B67C4F81D
:108EC0000880A0FB0C98E1FB6C68E2FB6C78E2FB8D
:108ED0006A59E3FB6A69E1FB6E79E2FB6E89E56042
:108EE000A0FB0EBADDF814E0E0FB6E7AE1FB6E8ABF
:108EF000E2FB6E9A0D9CD4E90445DDF800E0E4FB4A
:108F00006E6BE5FB6E7BE3FB6C8BE4FB6C9BE5FB24
:108F10006CABDDF830E0CEF81060019EA4FB06ECEF
:108F2000E5FB668C049EE3FB669CE4FB66ACE5FB1C
:108F300066BC029EE3FB667EE4FB668EE5FB669EF6
:108F4000059EE3FB66AEE4FB66BEE5FB66CE0C9CCD
:108F500004F1140484E8805F06AD95E8E003A0FB0B
:108F600005CEA1FB05BAE0FB66EBE2FB65AB2DE9A4
:108F70000050A1FB06ECE3FB65BCE0FB67AEE1FB48
:108F800067BEE2FB67CEA0FB0854E1FB68C4E2FBCE
:108F900068E4E2FB66B5E3FB66C5E1FB69E5E2FB7D
:108FA0006945A0FB0976DDF83490E0FB69E6E1FB5A
:108FB0006946E2FB69560F9AD2E90412DDF8209067
:108FC000E1FB69C7E2FB69E7E3FB6847E1FB685740
:108FD000E2FB68670998A1FB0098E2FB60480C98E7
:108FE000E3FB6058E1FB6068E2FB60780A98E3FB12
:108FF00060E9E1FB6049E2FB60590D98E3FB6069C1
:10900000E1FB6079E2FB60890E9800F1300181E8B4
:10901000F0038769BDE800030D9800F118003FC810
:10902000009EE0FB6687E1FB6697E2FB66A7E3FB39
:1090300066B7E4FB66C7E5FB66E70C9EC6F81880DA
:10904000D6F81C80019EE0FB6698E1FB66A8E2FB77
:1090500066B8E3FB66C8E4FB66E8E5FB66780C9E51
:10906000C6F81C90D6F82090029EE0FB66A9E1FBB2
:1090700066B9E2FB66C9E3FB66E9E4FB6679E5FBFA
:1090800066890C9EC6F820A0D6F824A0039EE0FBBB
:1090900066BAE1FB66CAE2FB66EAE3FB667AE4FBDA
:1090A000668AE5FB669A0C9EC6F824B0D6F828B00E
:1090B000049EE0FB66CBE1FB66EBE2FB667BE3FB39
:1090C000668BE4FB669BE5FB66AB0C9EC6F828C08E
:1090D000D6F82CC0059EE0FB66ECE1FB667CE2FB6B
:1090E000668CE3FB669CE4FB66ACE5FB66BC0C9E11
:1090F000C6F82CE0366BDDF818E0E0FB6E76E1FB9D
:109100006E86E2FB6E96E3FB6EA6E4FB6EB6E5FBB5
:109110006EC6DDF830E0CEF83070DEF83470DDF881
:109120001CE0E0FB6E87E1FB6E97E2FB6EA7E3FBC2
:109130006EB7E4FB6EC7E5FB6E67DDF830E0CEF896
:109140003480DEF83880DDF820E0E0FB6E98E1FB4B
:109150006EA8E2FB6EB8E3FB6EC8E4FB6E68E5FB4D
:109160006E78DDF830E0CEF83890DEF83C90DDF82F
:1091700024E0E0FB6EA9E1FB6EB9E2FB6EC9E3FB04
:109180006E69E4FB6E79E5FB6E89DDF830E0CEF8C0
:109190003CA0DEF840A0DDF828E0E0FB6EBAE1FB81
:1091A0006ECAE2FB6E6AE3FB6E7AE4FB6E8AE5FB55
:1091B0006E9ADDF830E0CEF840B0DEF844B0DDF86D
:1091C0002CE0E0FB6ECBE1FB6E6BE2FB6E7BE3FB26
:1091D0006E8BE4FB6E9BE5FB6EAB0C98C0F844C055
:1091E0000EB000BD2DE9F14FFFF74AFE5DF804CB4C
:1091F0000CF1480C8CE8C00FBDE8F08F01B591E888
:10920000FF0F2DE9FF0FA0FB0089A1FB00BAE0FBD7
:10921000619BE2FB60AB0C9EE6E80289A1FB017C4E
:10922000E3FB60BCE0FB62A7E1FB62B7E2FB62C765
:10923000A0FB0398E1FB63C8E2FB6378E2FB61B942
:10924000E3FB61C9E1FB6479E2FB6489E6E802AB18
:10925000A0FB04BAE0FB657AE1FB658AE2FB659A54
:10926000E4FB60CBE5FB607BE3FB638BE4FB639B90
:10927000E5FB63AB46F804CBA4FB01ECE5FB618C9A
:10928000E3FB649CE4FB64ACE5FB64BCE3FB627E53
:10929000E4FB628EE5FB629EE3FB65AEE4FB65BE2C
:1092A000E5FB65CE86E8805F06AD95E8E003A0FBB0
:1092B00005CEA1FB05BAE0FB66EBE2FB65AB2DE951
:1092C0000050A1FB06ECE3FB65BCE0FB67AEE1FBF5
:1092D00067BEE2FB67CEA0FB0854E1FB68C4E2FB7B
:1092E00068E4E2FB66B5E3FB66C5E1FB69E5E2FB2A
:1092F0006945A0FB0976DDF83490E0FB69E6E1FB07
:109300006946E2FB6956DDE906120898E1FB60C791
:10931000E2FB60E7E3FB6847E1FB6857E2FB686755
:109320000998A1FB0098E2FB60480C98E3FB6058A9
:10933000E1FB6068E2FB60780A98E3FB60E9E1FB2F
:109340006049E2FB60590D98E3FB6069E1FB6079DD
:10935000E2FB60890E9800F1300181E8F003876933
:10936000BDE8000306A83FC8009EE0FB6687E1FB5E
:109370006697E2FB66A7E3FB66B7E4FB66C7E5FB1F
:1093800066E70C9EC6F81880D6F81C80019EE0FBAC
:109390006698E1FB66A8E2FB66B8E3FB66C8E4FBFF
:1093A00066E8E5FB66780C9EC6F81C90D6F820901F
:1093B000029EE0FB66A9E1FB66B9E2FB66C9E3FB3E
:1093C00066E9E4FB6679E5FB66890C9EC6F820A099
:1093D000D6F824A0039EE0FB66BAE1FB66CAE2FB76
:1093E00066EAE3FB667AE4FB668AE5FB669A0C9E16
:1093F000C6F824B0D6F828B0049EE0FB66CBE1FBAB
:1094000066EBE2FB667BE3FB668BE4FB669BE5FBBE
:1094100066AB0C9EC6F828C0D6F82CC0059EE0FBB3
:1094200066ECE1FB667CE2FB668CE3FB669CE4FB9E
:1094300066ACE5FB66BC0C9EC6F82CE0366BE0FB28
:109440006076E1FB6086E2FB6096E3FB60A6E4FBEE
:1094500060B6E5FB60C6DDF830E0CEF83070DEF8CF
:109460003470E0FB6187E1FB6197E2FB61A7E3FBFE
:1094700061B7E4FB61C7E5FB6167CEF83480DEF8D5
:109480003880E0FB6298E1FB62A8E2FB62B8E3FB94
:1094900062C8E4FB6268E5FB6278CEF83890DEF8DB
:1094A0003C90E0FB63A9E1FB63B9E2FB63C9E3FB2A
:1094B0006369E4FB6379E5FB6389CEF83CA0DEF8E1
:1094C00040A0E0FB64BAE1FB64CAE2FB646AE3FB30
:1094D000647AE4FB648AE5FB649ACEF840B0DEF877
:1094E00044B0E0FB65CBE1FB656BE2FB657BE3FB36
:1094F000658BE4FB659BE5FB65ABCEF844C00DB026
:1095000000BD00BF2DE9F14FFFF778FE5DF804CBF9
:109510000CF1480C8CE8C00FBDE8F08F30B44FF070
:10952000000310F8014B11F8015B013A84EA0504CD
:1095300043EA0403F5D1A3F101034FEAD37030BC31
:10954000704700BF4FF0000310F8012B013943EAC8
:109550000203F9D1A3F101034FEAD370704700BFB2
:1095600030B411F8014B12F8015B6C4000F8014B6C
:10957000013BF6D130BC70472DE9F00791E8F807C0
:10958000B2E802105B1854EB0C04B2E802104D4133
:1095900056EB0C06B2E802104F4158EB0C08B2E84B
:1095A000021059EB01095AEB0C0A4FF0260261EB4D
:1095B000010122EA01015B1854F1000455F1000594
:1095C00056F1000657F1000758F1000859F100095B
:1095D0005AF1000A61EB010122EA01010B4480E823
:1095E000F807BDE8F00770472DE9F00791E8F807A4
:1095F000B2E802105B1A74EB0C04B2E802108D4161
:1096000076EB0C06B2E802108F4178EB0C08B2E85A
:10961000021079EB01097AEB0C0A4FF0260261EB9C
:10962000010102EA01015B1A74F1000475F1000501
:1096300076F1000677F1000778F1000879F100096A
:109640007AF1000A61EB010102EA0101A3EB0103D7
:1096500080E8F807BDE8F007704700BF2DE9F14F3B
:1096600087B0FFF7BBF94FF0260CBDE800034FF0C1
:10967000000AE0FB0C8AE1FB6C9A03BCE2FB6CA0E5
:10968000E3FB6C010CBCE4FB6C12E5FB6C23BDE856
:109690001040E6FB6C34E7FB6CB40CFB04F418EBF5
:1096A000040459F100055AF1000650F1000751F188
:1096B000000852F1000953F1000A5BF1000B60EB66
:1096C00000002CEA000004448EE8F00FBDE8F08FA3
:1096D0002DE9F14F87B0FFF73DFAC4E72DE9F0031C
:1096E00091E8F8134FF4EE31BF390022E3FB612318
:1096F000E4FB6134E5FB6145E6FB6156E7FB61672E
:10970000E8FB6178E9FB6189ECFB619C4FF0260185
:1097100001FB0CFC12EB0C0253F1000354F10004AA
:1097200055F1000556F1000657F1000758F1000801
:1097300059F100096CEB0C0C21EA0C010A4480E899
:10974000FC03BDE8F00370472DE9F00390E8F8133F
:109750004FEAEC7202F013022CF0004C02F11301FC
:10976000591854F1000155F1000156F1000157F16B
:10977000000158F1000159F100015CF100014FEACC
:10978000E17101F0130111445B1854F1000455F12B
:10979000000556F1000657F1000758F1000859F18D
:1097A00000094CF1000C2CF0004C80E8F813BDE8E7
:1097B000F00370472DE9F00391E8F803B2E80210D6
:1097C0005B1854EB0C04B2E802104D4156EB0C064A
:1097D00092E806104F4158EB020859EB0C098941F9
:1097E000013B74F1000475F1000576F1FF3677F165
:1097F000FF3778F1FF3879F1FF3951F1000113EBB0
:10980000D17354F1000455F100054E414F4158EB1E
:10981000010859EB010980E8F803BDE8F00370473F
:109820002DE9F00391E8F803B2E802105B1A74EB3B
:109830000C04B2E802108D4176EB0C0692E806109B
:109840008F4178EB020879EB0C09894113EBD17356
:1098500054F1000455F100054E414F4158EB010809
:1098600059EB010980E8F803BDE8F003704700BF39
:109870002DE9F14F85B0FEF7E5FEDDE903ABBAEB6C
:1098800005097BEB060AB84171EB080172F1000291
:1098900073F1000374F100046BEB0B0B4919724177
:1098A0007B4154EB08044BF10005BDE8C001BEEB61
:1098B0000E0E59EB02095AEB030A604169415EF151
:1098C000000E96419F4178EB040879EB05097AF187
:1098D000000A70F1000B71F1000C6EF1010E16EB35
:1098E000DE7657F1000758F1000859EB0E095AEBE4
:1098F0000E0A5BEB0E0B5CEB0E0C02B001BC80E8B9
:10990000C01FBDE8F08F00BF2DE9F14F85B0FEF715
:1099100033FFB2E72DE9F00791E8F807B2E802104B
:109920005B1854EB0C04B2E802104D4156EB0C06E8
:10993000B2E802104F4158EB0C08B2E8021059EBA4
:1099400001095AEB0C0A8941B3F1FF3374F1FF347A
:1099500075F1FF3576F1000677F1000778F1000820
:1099600079F101097AF1FF3A51F100015B184C419C
:109970004D4156F1000657F1000758F1000859EB28
:10998000D1795AEB010A80E8F807BDE8F007704783
:109990002DE9F00791E8F807B2E802105B1A74EBC2
:1099A0000C04B2E802108D4176EB0C06B2E802100E
:1099B0008F4178EB0C08B2E8021079EB01097AEBE1
:1099C0000C0A89415B184C414D4156F1000657F194
:1099D000000758F1000859EBD1795AEB010A80E8E9
:1099E000F807BDE8F007704718EB040859EB0509C4
:1099F0005AEB060A5BEB070B5FF0000C4CF1000C16
:109A000018EB050859EB06095AEB070A5BEB070B45
:109A100050EB0C005FF0000C51EB0C0152EB0C0210
:109A200063414CF1000CB8EB070879F100097AF1B9
:109A3000000A7BEB040BA841B141A241B3416CF198
:109A4000000CBBEB050BB041B941AA41BB416CF125
:109A5000000C4CF001068CF0020718EB060859EBDD
:109A60006C095AEB6C0A7BEB6C0B70EB6C0471EBC2
:109A70006C0572EB670653EB6C076CEB6C0C18EB28
:109A80000C0059EB0C015AEB0C025BF1000354F192
:109A9000000455F1000556EBDC7657EB0C077047D8
:109AA0002DE9F14F87B0FEF799FFDDF81080DDF862
:109AB0001490DDF818A0FFF797FFBDE8000FFFF73F
:109AC00093FF03B05DF8048B88E8FF00BDE8F08FDA
:109AD0002DE9F14F87B0FFF73DF8DDF81080DDF894
:109AE0001490DDF818A0FFF77FFFBDE8000FFFF727
:109AF0007BFF03B05DF8048B88E8FF00BDE8F08FC2
:109B00002DE9F04FB1E8C003B2E83804F618674118
:109B100058EB050859EB0A092DE9C003B1E8C00369
:109B2000B2E838045E41674158EB050859EB0A0971
:109B300091E8005C3CCA5AEB020A5BEB030B5CEB5E
:109B4000040C5EEB050E89413CBCB2F1FF3273F1AF
:109B5000000374F1000475F1FF3556F1010677F149
:109B6000FF3778F1FF3879F1FF397AF1FF3A7BF16D
:109B7000FF3B7CF1FF3C7EF1FF3E51F100015218AA
:109B800053F1000354F100044D4156EB41064F419F
:109B900058EB010859EB01095AEB010A5BEB010B89
:109BA0005CEB010C5EEB010E80E8FC5FBDE8F08F22
:109BB0002DE9F04FB1E8C003B2E83804F61AA74126
:109BC00078EB050879EB0A092DE9C003B1E8C00379
:109BD000B2E838049E41A74178EB050879EB0A0901
:109BE00091E8005C3CCA7AEB020A7BEB030B7CEB4E
:109BF000040C7EEB050E89413CBC521853F1000366
:109C000054F100044D4156EB41064F4158EB010819
:109C100059EB01095AEB010A5BEB010B5CEB010C00
:109C20005EEB010E80E8FC5FBDE8F08F80197941A2
:109C300052EB080253EB090354EB0A0455EB0B05F6
:109C40004CF1000C9B197C4155EB08054CF1000CC4
:109C5000A4197D414CF1000C891BBA4173EB080338
:109C600074EB090475EB0A056CF1000CDDE90C6777
:109C700016EB0C064FEAEC7C57EB0C074CF1000C92
:109C800016EB080657EB09074CF1000C16EB09061A
:109C900057EB0A074CF1000CB6EB0B06DDF8188009
:109CA00077EB08076CF1000CDDE90E8918EB0C0866
:109CB0004FEAEC7C59EB0C094CF1000C18EB0A084C
:109CC00059EB0B09DDF818A04CEB0A0C18EB0B084C
:109CD00059EB0A094CF1000CDDE910AB1AEB0C0A48
:109CE0005BF1000B704700BF2DE9F14F98B068465B
:109CF000FFF7C6F806A83FC84FF0000CCDF818C013
:109D00004FF0010CFFF792FF0DF1300C8CE83F0093
:109D10004FF0000C4CF1000C9DE83F00CDF818C04E
:109D2000FFF784FF6CEB0C0C10EB0C0051F1000101
:109D300052F1000253EB0C0354EB4C0455EB0C05B1
:109D400056EB0C0657EB0C0758EB0C0859EB0C09BB
:109D50005AEB0C0A5BEB0C0B18B05DF804CB8CE8EB
:109D6000FF0FBDE8F08F00BF2DE9F14F98B06846B6
:109D7000FFF744FABEE700BF2DE9F04F90E8F00F7F
:109D800000F140004FF0040E59E0F0B4826BC36B59
:109D900004680525242687593C444FEA724787EA20
:109DA000F24787EA92273C4442684FEAF21787EA73
:109DB000B24787EAD2073C4440F8044B032D08BF62
:109DC0006FF01B0687593A444FEA734787EAF34717
:109DD00087EA93273A4443684FEAF31787EAB34781
:109DE00087EAD3073A4440F8042B87593B444FEAAB
:109DF000744787EAF44787EA94273B4444684FEA6C
:109E0000F41787EAB44787EAD4073B4440F8043B99
:109E1000013DC0D1A0F13C00076A3C444FEA7247C3
:109E200087EAF24787EA92273C4402684FEAF21732
:109E300087EAB24787EAD2073C44C463F0BC4FF0DC
:109E4000020288EA781C8CEAF84C0BEBBC1C8AEA0C
:109E5000090303EA080383EA0A039C4450F8043B1D
:109E60009C4451F8043B9C44674444EA050B0BEACC
:109E7000060B04EA05034BEA030BE34484EAF423EC
:109E800083EA34530BEBB30B87EA771C8CEAF74C6D
:109E90000AEBBC1C89EA080303EA070383EA090307
:109EA0009C4450F8043B9C4451F8043B9C44664459
:109EB0004BEA040A0AEA050A0BEA04034AEA030A1F
:109EC000E2448BEAFB2383EA3B530AEBB30A86EABC
:109ED000761C8CEAF64C09EBBC1C88EA070303EA03
:109EE000060383EA08039C4450F8043B9C4451F861
:109EF000043B9C4465444AEA0B0909EA04090AEA5E
:109F00000B0349EA0309E1448AEAFA2383EA3A5354
:109F100009EBB30985EA751C8CEAF54C08EBBC1C0F
:109F200087EA060303EA050383EA07039C4450F823
:109F3000043B9C4451F8043B9C44644449EA0A08AD
:109F400008EA0B0809EA0A0348EA0308E04489EA38
:109F5000F92383EA395308EBB30884EA741C8CEACA
:109F6000F44C07EBBC1C86EA050303EA040383EA0E
:109F700006039C4450F8043B9C4451F8043B9C4429
:109F8000E34448EA090707EA0A0708EA090347EA37
:109F90000307674488EAF82383EA385307EBB307DB
:109FA0008BEA7B1C8CEAFB4C06EBBC1C85EA0403A9
:109FB00003EA0B0383EA05039C4450F8043B9C44EA
:109FC00051F8043B9C44E24447EA080606EA0906C5
:109FD00007EA080346EA0306664487EAF72383EAAA
:109FE000375306EBB3068AEA7A1C8CEAFA4C05EB87
:109FF000BC1C84EA0B0303EA0A0383EA04039C44BF
:10A0000050F8043B9C4451F8043B9C44E14446EA2C
:10A01000070505EA080506EA070345EA030565445E
:10A0200086EAF62383EA365305EBB30589EA791C01
:10A030008CEAF94C04EBBC1C8BEA0A0303EA090323
:10A0400083EA0B039C4450F8043B9C4451F8043BC6
:10A050009C44E04445EA060404EA070405EA0603D2
:10A0600044EA0304644485EAF52383EA355304EBA8
:10A07000B304013A7FF4E5AEA0F14000BEF1010E59
:10A080007FF483AEA0F1400C9CE80F000019491941
:10A090009219DB19ACE80F009CE80F0040444944DA
:10A0A00052445B44ACE80F00BDE8F08F70B5174C2C
:10A0B0006078002823D10120607004F0D9F86FF097
:10A0C000270528B904F0EAF810B904F0F1F820B136
:10A0D0000F486060A570082010E004F09EF840B9B9
:10A0E00004F0A5F828B904F0B9F810B904F0CAF8DA
:10A0F00030B1074831306060A5700420E07070BD59
:10A1000040F23F11742003F01DF9000018000020F8
:10A1100046E60200064A00B592F90320904201DBB0
:10A12000104600BD00F008F80249085600BD0000C6
:10A130001800002038E602000246134810B590F9D6
:10A1400003309A4201DB0D2010BD90F902309A4293
:10A1500001DC002010BD01B10121D41A4368185D53
:10A160000A4C24569442F5D0084C08443F34C0B2FF
:10A17000D2B2A342EED10029ECD0012A01D0022AAA
:10A18000E8D1401CC0B210BD1800002038E6020023
:10A190002DE9F0411C4690460D4606466FF0150726
:10A1A000042804D81CB103F011FEA84202D8384696
:10A1B000BDE8F0810548424650F8260018B14057E6
:10A1C000824200DD024622700020F1E76C10002080
:10A1D00070B50D4604000CD094F8286000210220D0
:10A1E000092D6ED2DFE805F008113636667189A6B2
:10A1F00094004FF4CB71F7E094F8260004287BD04C
:10A200000328FCD040F2A111EEE094F826000428C7
:10A2100004D0032802D040F2A511E5E0052084F81F
:10A22000260084F8291094F82400B8BB00212046A9
:10A2300003F02DFE2078012807D0D4E9040100BFE7
:10A24000C4E906010021226A48E094F8270001F0E1
:10A250001BFAF5E794F82610042904D0032902D04C
:10A2600040F2C311C0E094F8242022B121463046C8
:10A2700003F04DFEB0E0042900D0012084F8260050
:10A28000226A022D0BD006213046904700286DD05F
:10A29000007800286AD040F2DD11A5E034E0052105
:10A2A00030469047002870D0007800286DD04FF4D9
:10A2B000EC7199E094F82600052803D04FF4F27170
:10A2C00092E080E00221226A08E094F82600052846
:10A2D00002D04FF4F57187E0226A012130469047A1
:10A2E0000146204603F07EFD022875D0E8B3012820
:10A2F0006CD040F22A2177E070E094F8260005281F
:10A3000002D04FF4F8716FE0BDE8704000F09EB8E5
:10A3100094F82600052802D040F2F51164E0226A84
:10A320000A21304690470146204603F05BFD4FF47A
:10A33000FC7159E094F82620052A07D094F82530BE
:10A340000BB1032A02D04FF4FE714DE094F82420A3
:10A350002AB121463046BDE8704003F0D8BD94F8DC
:10A3600029209AB184F8291001E032E034E084F821
:10A370002600226A082130469047002837D000780E
:10A38000002834D04FF402712EE030E094F82520FC
:10A390005AB184F8251094F82700214603F075FD82
:10A3A000002824D140F20D211EE084F82600226A04
:10A3B000072130469047002819D00078002816D091
:10A3C0004FF4057110E040F219210DE00421226ADA
:10A3D00084E70321226A81E7002D08D103F04BFEB8
:10A3E000002804D040F233216A2002F0ABFF70BD98
:10A3F000002819D003781349134A13B1012B0ED04A
:10A4000011E00379012B00D06BB943790BB1012B1B
:10A4100009D18368643B8B4205D2C0680EE00379A2
:10A42000012B02D00BB10020704743790BB1012BF7
:10A43000F9D1C368643B8B42F5D280689042F2D870
:10A44000012070473D860100FF3F420F10B5054CCB
:10A45000206810B1804700202060BDE8104001F066
:10A46000FBBC0000200000202DE9F0410E46050055
:10A4700004D000F047F8074600240BE06FF0150009
:10A48000BDE8F081204600F043F890F8260030B196
:10A49000641CE4B2BC42F5D36FF00B00F0E7274632
:10A4A000FF2CF9D0204600F033F8044603F04AFDB3
:10A4B00084F828702146084801F0AAFC84F8270097
:10A4C000202806D00120256284F82600377000205D
:10A4D000D6E76FF02200D3E7D1A1020010B58207C2
:10A4E00002D06FF00D0010BD054A1170506028B108
:10A4F00001EB41010A01002103F0B8FF002010BD6B
:10A50000240000200148007870470000240000204B
:10A5100005490A78904201D300207047496800EB52
:10A52000400001EB00107047240000200D4910B5D9
:10A5300091F8420020280FD091F84200A1F59062D6
:10A5400002EB401091F84210406802EB41110A689A
:10A55000BDE810400421104740F67F01702002F052
:10A56000F1FE00000010002070B50546202A28D01A
:10A5700019481A4C00EB831C03EB43030CEB42001D
:10A580002344202922D00CEB410140784C784870BC
:10A59000204601460CEB4100914205704078F8D10D
:10A5A00093F82A20202A1ABF0CEB4202547083F839
:10A5B000294020220CEB410C8CF8012083F82A1052
:10A5C00070BD40F28621702002F0BCFE93F8284056
:10A5D000407883F82800DBE7800F0020001000207F
:10A5E0002DE9F04F8FB015461E460C4601F044FE93
:10A5F000281846F10001CDE90110D4E90023801AA2
:10A6000071EB0300C0F0E58008A8DDF860A00A90B7
:10A61000BC480AEB4A010844099090F828502020D1
:10A620000DF11C098DF81C00202D36D0B6480026EF
:10A6300000EB8A1BB548D4E9007300EB451050F8D5
:10A64000088FD0E9012118EB01017241791A73EBEF
:10A65000020122D3E189C9B1C089B8B902F0D8FC9E
:10A66000B0F5C67F08BF0D200BD0A0F5407056385E
:10A6700008BF1C2005D0A0F500709F3814BF3046DD
:10A680003220401CB7EB0801814206DB0BEB450092
:10A6900089F800504578202DCCD10A9899F80010FF
:10A6A000202D0170DDF8289000F028819648974F02
:10A6B00000EB8A100026049007EB451A0AF1080007
:10A6C000D4E90112D4F800B0D0E900831BEB0202F8
:10A6D0007141B8EB020273EB010120D3C08900285D
:10A6E00000F00C81E089002840F0088102F090FC25
:10A6F000B0F5C67F08BF0D200BD0A0F540705638CE
:10A7000008BF1C2005D0A0F500709F3814BF30464C
:10A710003220411CB8EB0B00884280F2EF8089F8B0
:10A7200000509AF81800217C814207D2049800EB6F
:10A7300045004578202DBFD100F0E0B89DF82000FD
:10A7400007EB4010D0E90312D0F80890C08A19EB4B
:10A75000020541EB0608B0BBE089A0B302F058FC4B
:10A76000B0F5C67F08BF0D200BD0A0F5407056385D
:10A7700008BF1C2005D0A0F500709F3814BF3046DC
:10A780003220411CB5EB090088421CDA02F040FC83
:10A79000B0F5C67F08BF0D200BD0A0F5407056382D
:10A7A00008BF1C2005D0A0F500709F3814BF3046AC
:10A7B00032209DF82010401C07EB4111D1E9022303
:10A7C000151843EB0608DDE90101491B70EB080091
:10A7D00003D20FB00020BDE8F08FC4E900581898EC
:10A7E0000B9008A80A9009980DF11C0A90F82850BF
:10A7F00020208DF81C00202D37D043480B9900EB0A
:10A80000811B00BF07EB4510D4E9008350F8089F77
:10A81000D0E9011219EB02027141B8EB020273EBAD
:10A82000010122D3E189C9B1C089B8B902F0F0FBB6
:10A83000B0F5C67F08BF0D200BD0A0F5407056388C
:10A8400008BF1C2005D0A0F500709F3814BF30460B
:10A850003220411CB8EB0900884206DB0BEB4500B7
:10A860008AF800504578202DCCD10A989AF800102B
:10A87000202D0170DDE90A8040D0234901EB8010D2
:10A88000CDF80C0007EB451909F10800D4E90112D5
:10A89000D4F800B0D0E900A31BEB02027141BAEB7F
:10A8A000020273EB01011BD3C08938B3E08928BBD6
:10A8B00002F0AEFBB0F5C67F08BF0D200BD0A0F5AF
:10A8C0004070563808BF1C2005D0A0F500709F3896
:10A8D00014BF30463220411CBAEB0B0088420DDA1F
:10A8E00088F8005099F81810207C8842BFF426AFF1
:10A8F000039800EB45004578202DC3D10FB001200F
:10A90000BDE8F08F00100020800F0020800B002099
:10A910002DE9F04383B0914604460D46984601AABE
:10A920006946184601F0C4FC02F09AF901F0A4FC53
:10A9300007461E4890F842100026202909D0826858
:10A94000C1680069831D46F10000D41841EB000581
:10A9500026E00A3445F10005B8F1000F17D002F0E7
:10A9600079FCA0B902F054FBB0F5C67F08BF0D20FA
:10A970000BD0A0F54070563808BF1C2005D0A0F5BC
:10A9800000709F3814BF3046322004197541B9F168
:10A99000000F05D10098874202D9381A0419754171
:10A9A00003B020462946BDE8F083000000100020D7
:10A9B0002DE9FF4F81B0054602984A4900EB40005F
:10A9C0000844002690F82840202092461070A1F5F7
:10A9D0009069202C36D0029909F5806000EB811B2C
:10A9E00009EB4410D5E9007350F8088FD0E9011243
:10A9F00018EB02027141BA1A73EB010122D3E98903
:10AA0000C9B1C089B8B902F003FBB0F5C67F08BF71
:10AA10000D200BD0A0F54070563808BF1C2005D083
:10AA2000A0F500709F3814BF30463220411CB7EBB0
:10AA30000800884206DB0BEB44008AF800404478AB
:10AA4000202CCDD104989AF80010202C0170049F7E
:10AA5000029842D0244901EB80100090D5E90131E1
:10AA6000D5F800B009EB441808F108001BEB01020F
:10AA700043EB0601D0E900A3BAEB020273EB01013C
:10AA80001BD3C08948B3E88938BB02F0C1FAB0F5DE
:10AA9000C67F08BF0D200BD0A0F54070563808BF08
:10AAA0001C2005D0A0F500709F3814BF304632201E
:10AAB000411CBAEB0B0088420FDA3C7098F8181072
:10AAC000287C884203D305B00020BDE8F08F0098B1
:10AAD00000EB44004478202CC0D105B00120BDE833
:10AAE000F08F000000100020800F00202DE9FF5F94
:10AAF0009CB01F4601F02CFE04460D4602F0B0F853
:10AB000006461E98012818BF022805D040F65611A7
:10AB10004FF0700002F016FCFE4901200860FE496B
:10AB20008968086000208DF852000C90401E0D903E
:10AB3000FA480DF1380800EB471000F1080191E8E0
:10AB40000E1088E80E10D0E90610CDE912100E980C
:10AB500020F07F4003F098FA0246BDF846809DF849
:10AB60004400EF4B4044411C50189A4256D8ED4ADD
:10AB700091425BDC5242914260DB591C8142DCBF56
:10AB800000F5F700A0F1F85005DD0028BCBFA0F5E6
:10AB9000F70000F1F8501790E348B8F1000FB0F853
:10ABA000A000ADF8500014BF4FF0010A4FF0000AAA
:10ABB00002F050FB1990BAF1000F0BD0DB49D1E93C
:10ABC0000E016FEA000272EA010002BF1998002824
:10ABD000012701D04FF0000702F01AFAB0F5C67F46
:10ABE00008BF0D200BD0A0F54070563808BF1C20C0
:10ABF00005D0A0F500709F3814BF002032204FF020
:10AC00000009CB461690464536D91799F343DFF82D
:10AC100010C3C818E9461AAA614504D940F27F5109
:10AC2000702002F08FFBBF498B4204DD4FF4B0610E
:10AC3000702002F087FBBE498B4204DA40F281515A
:10AC4000702002F07FFBBB498142DCBF00F5F700BA
:10AC5000A0F1F85005DD0028BCBFA0F5F70000F119
:10AC6000F850494601F024FB00980E9920F07F40EF
:10AC70000090081A20F07F49002F18BFDDF858B067
:10AC800005D19DF85000002818BF4FF0020BE0439B
:10AC900070EA050022D0DDE90E01221A75EB0102EF
:10ACA0000CD2021B61EB0501B2F5000271F100014B
:10ACB00011D340F69511702002F044FB221A65EB87
:10ACC0000101B2F5000271F1000104D340F69911BF
:10ACD000702002F037FB001B012803DA1C981A9041
:10ACE00003200DE057B1914890F8400030B19DF835
:10ACF000500010F1000B18BF4FF0020B00201A9407
:10AD00008344DDE90E02B0EB090062F10001421E4E
:10AD10001A9B41F1FF3ED31A5B4508DBB9F1000FE6
:10AD200032D0109BCDE90E014B4410932CE0B9F1C9
:10AD3000000F05D09DF8510020B901F087FF08B140
:10AD4000AFB90CE02FB99DF85000002818BFABF147
:10AD5000020B4FF000098DF850904E4607E09DF829
:10AD6000500020B100208DF85000ABF1020BDDE95E
:10AD70000E02B0EB090062F10001421E1A9B41F184
:10AD8000FF3ED31A5B457DDB199B9BB9674BD3E92B
:10AD90000EC36FEA0C0979EA03090BD0B0EB0C0C77
:10ADA000169861EB0303BCEB000073F1000038BFA1
:10ADB000002000D301203AEA000063D1DDE91C1035
:10ADC000CDE907011E989146CDE91870F34600279A
:10ADD00002F01EF9B0F5C67F08BF0D200BD0A0F51C
:10ADE0004070563808BF1C2005D0A0F500709F3871
:10ADF00014BF38463220DDE907320B30B9EB0202CE
:10AE00006BEB0303101A73F100002AD21998012882
:10AE100002D0189848B117E0E04370EA050027D146
:10AE200040F6D701702002F08DFAE04370EA050089
:10AE30000AD01DD0B4EB090065EB0B010023D0F163
:10AE4000040273EB010206DA4C465D4620462946B1
:10AE500001F05EFB0CE00022101A72EB010011DB26
:10AE600006E04C465D462046294601F051FB574618
:10AE7000E14371EA050071D024F07F404FF0000BF0
:10AE80000E9900E06FE00B1ADDF840C023F07F431D
:10AE900011EB0C01081A20F07F40012B63D3B3F5AE
:10AEA000000F98BFB0F5000F5DD824F07F4003F08D
:10AEB000EBF817991B4A0D1AAA1A7BF1000216D358
:10AEC000184B421AD31A7BF1000310D3144BAB4238
:10AED0003EBFC0F5902000F1F450451807D39342CF
:10AEE00045D2C1F5902101F1F45108444542DFF803
:10AEF0003C9099F8220078B31E98012805D00220D2
:10AF000001F092FD012001F08FFDB04540D2A5EB8C
:10AF1000060111E0080500402C000020800B0020F5
:10AF2000FF7F841E0040420F800F00200010002091
:10AF300000C0BDF00080841E4FF0020001F0BAFC9A
:10AF400098B3B8F1000F1CBFA5EB0801012035D064
:10AF500001F0B0FC48B331E00EE0FFE740F603211A
:10AF6000702002F0EFF920B00020BDE8F09F40F61D
:10AF7000D721702002F0E6F9B04534BF3046404694
:10AF80001E30A842B8DB40F61721702002F0DAF933
:10AF90000CD9A5EB0801012001F08CFC28B1002E92
:10AFA0001CBFA91B022009D0D2E734E056EA0800F2
:10AFB00004D040F63A11702002F0C4F9294600206E
:10AFC00001F078FC38B30126BAF1000F04BF99F8FC
:10AFD0004000002800D047B3D9E90E106FEA010104
:10AFE00071EA000006D002F019F84FF0FF30014678
:10AFF000C9E90E01FFB11698201A20F07F414FF0E9
:10B00000050001F057FC70B399F84000002808BF14
:10B0100089F8406017E0022001F006FD012001F0F0
:10B0200003FD20B00020BDE8F09FD9E90E01C04328
:10B0300070EA010012D099F8400020B1052001F01B
:10B04000F3FC89F840B0A5EB0800A0F11901002934
:10B050000FDC4FF42461702002F074F901F0FAFF64
:10B0600001F006FCC4E7FFE740F2E621702002F0A1
:10B0700069F9032001F01EFC38B316488068C0F857
:10B0800000B01548C0F800B00CAC144894E80E109D
:10B09000C0F88010C0F88420C0F88830C0F88CC098
:10B0A00010AC94E80E10C0F89010C0F89420C0F8CE
:10B0B0009830C0F89CC0DDE91412C0F8A010C0F8A8
:10B0C000A42020B00120BDE8F09F40F64821702068
:10B0D00002F038F92C00002008050040800F002005
:10B0E00070B51D4D95F84200202818BF70BD95F829
:10B0F000412002EB4200284490F82840202C26D022
:10B10000164B03EB821101EB4401497880F82810BB
:10B11000FF2085F8310085F842402146022000F0EA
:10B120008BF8002085F8300085F822000C4800EBF1
:10B130004410007E002808BF02F07AFC0020094974
:10B140004968002908BF70BDBDE87040084740F25B
:10B150001D31702002F0F6F800100020800F002052
:10B16000800B00202C0000202DE9F05FDFF8B88074
:10B1700098F8415005EB4500404490F82940202CB8
:10B1800008BFBDE8F09FDFF8A4B0DFF8A490A9F5F0
:10B19000806A09EB8517072617F8140001280ED0DE
:10B1A000042808BF02260AD005280CBF032606285B
:10B1B00005D04FF40A614FF0700002F0C3F8BBF104
:10B1C000000F18BFAFF30080EFF3108072B607EBEB
:10B1D00044014A7805EB4501414481F8292091F862
:10B1E0002A20A24204BF202281F82A20A8B12A46A0
:10B1F0002146012000F020F80AEB4411D1E900209B
:10B200003146904798F8415005EB4500404490F88E
:10B210002940202CBDD1BDE8F09F0648002818BF6A
:10B22000AFF3008062B6E2E70010002000000000EB
:10B23000800F002000000000DFF858C010B5002388
:10B240000CEB821C07281FD2DFE800F0050505057E
:10B250000404040001230CF81100002B08BF10BDEA
:10B2600002EB42020C48024492F82A0020280EBF4A
:10B2700082F829100CEB4000417020200CEB4103B8
:10B28000587082F82A1010BD4FF41771702002F028
:10B2900059F80000800F0020001000202DE9F05F19
:10B2A0000F468046DFF854B101EB47005844B8F12F
:10B2B000010F90F82840254618BFB8F1020F05D0BD
:10B2C00040F67E214FF0700002F03CF8202D41D076
:10B2D0009BF822000026002808BF022601F012F980
:10B2E000DFF81C9109EB441399681B690A1AC91805
:10B2F000091A22F07F4221F07F41964299BFB2F5B0
:10B30000000FB1F5000F3F4A02EB871A20D9224601
:10B310000AEB42014C78202C12D009EB44139968B7
:10B320001B69B1EB000CC918091A2CF07F4C21F0F5
:10B330007F4166459CBFBCF5000FB1F5000FE6D814
:10B34000202A05D03B4620210420FFF70DF90446B2
:10B35000AC4213D12C48002818BFAFF3008001F095
:10B3600087FA9BF84320202A0BD0DBE90232841CA9
:10B3700041F1000C1B1B72EB0C0202D20020BDE855
:10B38000F09F202D13D02B464246FFF7AFFB00283D
:10B390001EBF8BF843500220BDE8F09F3B462A4673
:10B3A00020210420FFF7E0F80020BDE8F09FDBE952
:10B3B0000E01C04370EA010005D001F02FFE4FF0EE
:10B3C000FF30CBE90E009BF8400028B1052001F0CA
:10B3D0002BFB00208BF84000042001F025FB01F03E
:10B3E0008BFB0A4920208BF8430089680020086005
:10B3F000074908600120BDE8F09F00000010002010
:10B40000800B0020800F0020000000002C00002096
:10B41000080500402DE9F04FDFF8C4B106468FB0B3
:10B420009BF842008A46202861D09BF842100BF11D
:10B430000804ABF5906808EB411920218DF818102D
:10B440009BF84110DBF8082001EB4101594400272B
:10B4500091F82850DBF8101051180A91DBF8000021
:10B4600009AA304407A900F023FFD9F81000079972
:10B47000D9F8082040181018672E3DD359490022EA
:10B48000891B72EB070137D321689446401A20F0DC
:10B490007F41D1F500017CEB0C012DD3A06008F5B4
:10B4A000906084F810A090F841000DF1180B202D49
:10B4B00055D008F5806101EB801001904A48D4E92D
:10B4C0000131D4F800A000EB451808F108001AEB90
:10B4D000010243EB0701D0E90093B9EB020273EBE1
:10B4E000010125D3C08998B3E08948B137E040F61F
:10B4F0003531702001F026FF0FB00120BDE8F08F3C
:10B5000001F086FDB0F5C67F08BF0D200BD0A0F579
:10B510004070563808BF1C2005D0A0F500709F3839
:10B5200014BF38463220411CB9EB0A00884216DAB3
:10B530008BF8005098F81800217C814209D32168CB
:10B540000A98401AA0600FB04FF00200BDE8F08FDB
:10B5500005E0019800EB45004578202DAED105208F
:10B5600001F062FA1E4D4FF0FF30686095F84130EF
:10B570009DF818202021202A03D00520FEF7F4FF93
:10B5800004E003EB4300284490F8280095F841209C
:10B59000164901EB821195F8422001EB42014870F7
:10B5A000286830442860FF2085F83100687E012833
:10B5B0000AD1D4E901202368181842F10001401E85
:10B5C00041F1FF3101F052F89DF81800202803D016
:10B5D0000748407801F088FF0FB00020BDE8F08FE9
:10B5E000001000200040420F800B0020800F002040
:10B5F0002C00002070B5234A92F84210202939D03F
:10B6000092F84210A2F5906303EB411C92F84110AE
:10B6100092F8414001EB4101114491F82810A2F148
:10B62000800505EB8414202929D003EB41152D7EDC
:10B63000A8423CBF04EB41014978F4D3DCE9036044
:10B6400003EB4113DCF80850D3E9021314682818FF
:10B6500046F10002B1EB000C73EB020208D3081AAA
:10B6600002F012FD04F1670181429CBF001B70BD16
:10B67000002070BD40F60831702001F063FE4FF0ED
:10B68000FF3070BD001000200A4910B501EB4010DA
:10B6900000F10804D4E9000100F08CFDE3890022E8
:10B6A000C318207B514118185141401C41F1000141
:10B6B00010BD0000800B0020F8B56F4D002605F589
:10B6C00090640127D4E90E126C4B082873D2DFE88E
:10B6D00000F00478A0B3CE47B8BDC84370EA0200BA
:10B6E00005D101F0B7FC01F0C3F8C4E90E01E08A0E
:10B6F00010B101F0AFFD80B1FFF7F2FCFF2084F83C
:10B700002F006168B1F1FF3F03D0052001F0D2F8AE
:10B7100040B1607E012814D109E040F62C01702070
:10B7200001F010FE40F63101702001F00BFEA2681E
:10B730002069E16810187141401E41F1FF3100F0AD
:10B7400095FF94F8420094F8421005EB40104068D1
:10B7500005EB41110A6801B00121BDE8F040104736
:10B7600094F8400060B1C84370EA020005D101F0CE
:10B7700071FC01F07DF8C4E90E0184F84060F8BD69
:10B78000FFF7AEFC4FF0FF30606094F82F008DF8AB
:10B7900000009DF8000078B194F8420094F842103F
:10B7A00005EB4010406805EB41110A6801B0062125
:10B7B000BDE8F04010475AE040F64801702001F023
:10B7C000C1FDFFF78DFC84F82E7001F043FD30B110
:10B7D000D4E90E10C94371EA000005D00AE040F632
:10B7E0005601702001F0AEFD01F034FC01F040F88C
:10B7F000C4E90E0194F8420094F8421005EB4010A1
:10B80000406805EB41110A6801B00021BDE8F04035
:10B81000104701F007FAE08A10B101F01BFD30B1CA
:10B8200001F014FA002818BF84F82170F8BD4FF415
:10B830000661702001F086FD114807609868076076
:10B84000F8BD1878BDE8F84001F04EBEFFF748FC9F
:10B8500094F8420094F8421005EB4010406805EB64
:10B8600041110A6801B00521BDE8F040104740F6DB
:10B870007301702001F066FD800B00202C00002079
:10B88000080500402DE9F34FF74897B00C460068D3
:10B89000F64FC005C00D0ED0103840B20028B8BF1A
:10B8A00000F00F0000F1E020ACBF90F8000490F829
:10B8B000140D40090CD020784FF0000A002818BF62
:10B8C000012817D040F2F9614FF0700001F03AFD05
:10B8D00097F842004FF0010A202806D0207848B19E
:10B8E00040F2F561702001F02DFD40F2F261702010
:10B8F00001F028FDDFF878B3BBF1000F04D0002180
:10B9000040F2FC60AFF300800020CDE9100005A9F3
:10B910001291D84917984FF0010801EB401001909F
:10B92000BBF1000F04D0002140F20770AFF300809C
:10B93000B8F1000F09D000BF97F84160002587F8E3
:10B940003150BAF1000F07D03EE0CB48002818BFB5
:10B95000AFF3008062B6EFE7B146012020EA0906A6
:10B96000C648402200EB891100EB861002F004FD6E
:10B97000BBF1000F04D0002140F23C50AFF3008037
:10B9800009EB490106EB4600394438440A8D02852B
:10B9900091F82A1080F82A10BBF1000F04D0002182
:10B9A0004FF4A860AFF30080BBF1000F04D000217A
:10B9B00040F21170AFF3008097F831008DF820004D
:10B9C0009DF820000028ABD1BBF1000F04D000216E
:10B9D00040F21B70AFF3008000F04AFF814602A8DE
:10B9E0000A9088462189284661F31F400146A27AC1
:10B9F000284662F30700E27A62F30F20227802956C
:10BA000062F31740CDE90451CDE90605039520788E
:10BA100080B3BDF816009A49081A0A9901F10C0280
:10BA200014A900F045FC0022BDF8163048464146F6
:10BA3000FEF76EFF8C46E17A00290CBF7A214A217D
:10BA400062689DF814301144BDF81620CDE9020C4F
:10BA50001A441144881C00F00FFC009604904A46DA
:10BA6000434620690A99FEF7BBFD002808BFCDE9CF
:10BA7000029846E0FFE74846414600F09BFBDFF8AE
:10BA800004C2024610EB0C0C0B4641F1000ED4E947
:10BA90000401B0EB0C0C71EB0E0C29D2293243F1EE
:10BAA0000003821A71EB030222D322890AAB801AA7
:10BAB00061EB0501129A401E009241F1FF310DAA7F
:10BAC00000F09CFBE07A00280CBF7A204A200D99F8
:10BAD00022890844616811440844801C00F0CCFBB2
:10BAE000DDE90A12CDE90212401A20F07F4007E09A
:10BAF000B9F1010148F1FF30CDE902104FF47A703D
:10BB00000490BBF1000F04D0002140F22270AFF38B
:10BB100000805A49DDF85C8001EB8611089111F82C
:10BB2000181002A8012918BF022941D11195029AC3
:10BB300029F07F41531ADDF810C023F07F4312EB48
:10BB40000C02511A21F07F41022B74D3B3F5000F80
:10BB500098BFB1F5000F6ED8012514AB0EAA31467F
:10BB6000FEF726FF00286DD09DF838109DF8502074
:10BB700033468A426AD00520FEF7F6FC089901EBAD
:10BB8000480148709DF83800202801BF06EB4600A8
:10BB9000384480F8288011951EBF089901EB4000B9
:10BBA00080F80180324641465FF00300FFF744FB16
:10BBB000BBF1000F04D0002140F22770AFF30080EA
:10BBC0003148002818BFAFF30080EFF3108872B639
:10BBD000BBF1000F04D0002140F22D70AFF30080C4
:10BBE00097F831008DF820009DF8200000287FF4A0
:10BBF00097AEBBF1000F04D0002140F23570AFF3D7
:10BC000000800DF1040E9EE80F1000F1080E8EE882
:10BC10000E10DDE90612C0E9061225B3BBF1000FD4
:10BC200004D0002140F24270AFF30080BAF1000F5F
:10BC300046D12BE0FFE7324641460420FFF7FCFAED
:10BC40000125B5E7324641460420AFE720291DBF54
:10BC5000089800EB4100407806EB460004BF3844EA
:10BC600090F828008AE73BE004ED00E00010002097
:10BC700000000000800B002000000000800F00206A
:10BC8000FF7F841E0040420F00000000119810F05A
:10BC9000FF0F15D097F84200202811D1BBF1000FFB
:10BCA00004D0002140F24770AFF3008031460220FB
:10BCB000FFF7F4FA109018B9207800B301282ED0BD
:10BCC000BBF1000F04D0002140F26470AFF300809C
:10BCD000FF20BAF1000F18BF87F8310029D00125E5
:10BCE000BBF1000F04D0002140F27570AFF300806B
:10BCF0001098344C022825D001282BD02FE0BBF11E
:10BD0000000F04D0002140F24F70AFF3008097F88D
:10BD1000412004201799FFF78FFA0125E0E7BBF1D6
:10BD2000000F3FF4FDAD002140F25A70AFF30080E8
:10BD3000F6E597F841200121914387F8411087F8F3
:10BD40003100CCE7B868B0EB090002F09DF96168FA
:10BD500021B904E061684FF0FF3001B18847B8F1C4
:10BD6000000F28D0BBF1000F04D000214FF4F16088
:10BD7000AFF300809DB197F8410000EB40003844DC
:10BD800090F8290020280AD0BBF1000F04D0002130
:10BD900040F28F70AFF30080607801F0A5FBBBF13B
:10BDA000000F04D0002140F29470AFF3008019B06E
:10BDB0002846BDE8F08F0448002818BFAFF3008084
:10BDC00062B6CFE72C0000200000000010B520284C
:10BDD00011D20E4991F84130A1F1800202EB831C8F
:10BDE0001CF810303BB191F8413002EB831212F88D
:10BDF0001020012A01D0002010BD91F841200146F9
:10BE00000020FFF719FA012010BD000000100020EB
:10BE100070B50D46064601F00BFA0D4890F841202A
:10BE20000024803800EB821010F8141029B1611C36
:10BE3000CCB2202CF8D3202070BD0648214600EB60
:10BE40004410C0E900650120FFF7F6F9204670BDF7
:10BE500000100020800B00202DE9F84F00F008FDB5
:10BE600006460F4600F048FE654C6068B0F1FF3FA3
:10BE70001CBF4FF0FF30606094F82200DFF884B1FF
:10BE8000002510BB4FF40C71206901F0BDF9D4E915
:10BE90000323A168181845EB0503091842EB0300BA
:10BEA000711A77EB000010D394F8420094F8421016
:10BEB0000BEB401040680BEB41110A6808219047DA
:10BEC0004FF46D71702001F03DFA607E80B194F8FE
:10BED0002F008DF800009DF8000048B100F03EFCF6
:10BEE00094F8300050B140F2CD31702001F02AFAC0
:10BEF000F01C47F1000100F00BFBF1E7012084F892
:10BF0000300094F84200202820D094F8429020205D
:10BF100084F8420084F8430084F82E5084F82F50AF
:10BF2000256000F0A3FE84F8200094F8418008EB1F
:10BF3000480000EB040A9AF8280020281CD00BEBDC
:10BF4000401B9BF81A00012805D015E04FF47471CE
:10BF5000702001F0F7F90122BBF81630304639465F
:10BF6000FEF7D6FCDBE90223121A73EB010224BFB1
:10BF70000BF10802C2E9000141460120FFF78EF9EA
:10BF80000700F9D0204800EB881010F819000228AB
:10BF900004D1424649460620FFF74EF9FF2084F8B7
:10BFA00031009AF82900DFF8648020281CBF98F837
:10BFB000010001F099FA94F8200028B100F032FE57
:10BFC00084F8205084F82150022F0FD0012F18BF81
:10BFD000BDE8F88F4FF0FF30D8F80410002908BFF3
:10BFE000BDE8F88F01B0BDE8F04F0847A068801B9E
:10BFF00002F04AF8D8F804100029F3D1BDE8F88F10
:10C0000000100020800B0020800F00202C0000205A
:10C0100070B5424C054682B094F84200202808D002
:10C020006068B0F1FF3F09D040F6B621702001F002
:10C0300089F940F6B521702001F084F994F84200A6
:10C04000374901EB4016B06820F07F4002F01CF841
:10C050000246F08A317D334B0844401C11189A4245
:10C0600017D8314A90421BDCC2F1000C60451EDB40
:10C0700056008E42DCBF01F5F701A1F1F85105DD54
:10C080000029BCBFA1F5F70101F1F8514819994207
:10C0900004D940F27F51702001F054F9954204DD3B
:10C0A0004FF4B061702001F04DF9654504DA40F2BB
:10C0B0008151702001F046F98642DCBF00F5F7009F
:10C0C000A0F1F85005DD0028BCBFA0F5F70000F195
:10C0D000F85001AA694600F0EBF89DF804000F281B
:10C0E0008CBF012000200099084420F07F4161604E
:10C0F00094F82F008DF800009DF80000002804BF80
:10C1000002B070BD052000F0D5FB00281CBF02B0B6
:10C1100070BD40F6BD21702001F014F90010002020
:10C12000800B0020FF7F841E0040420F70B51E4C24
:10C13000202184F8281084F8291084F82A1000207F
:10C1400084F8410084F84210421EC4E9000284F8D9
:10C15000220084F82E0084F82F0084F8200084F850
:10C16000210084F84310411EC4E90E1184F84000F8
:10C17000A4F182011022887001F8040F521EFAD136
:10C1800000F07EFD094D012684F83060FF20287004
:10C19000074801F08BF9687001F0E6F9A86000F03B
:10C1A00001FD84F8446070BD001000202C000020C8
:10C1B00069B10200030E30B443EA0123DFF838C04E
:10C1C000090EA3FB0C2501FB0C51002403FB0411F9
:10C1D00047F6FF7303EA502343F6095C13FB0CF3A5
:10C1E000C0F3080010FB0CF000F5807003EB50204A
:10C1F0008018614130BC70470080841E70B584B0E7
:10C20000154601AA1C460092089E02AB174A02F08E
:10C21000A4F8019848F23762410B5143090C144AC3
:10C220004B0201FB020113484843420D981843F6A4
:10C23000095312FB03F303F5807243F6085CA1EB8C
:10C2400052226344D2B2B1EB532F84BF0022401C70
:10C250003270029B190A1B06181841F10001C4E94B
:10C2600000010198286004B070BD00000080841EA9
:10C27000F7C2FFFF6F0C0100410B48F237625143D8
:10C280000A0C094B510202FB03020848504300F517
:10C2900086306E30400D5B4210FB03F3B2EB532F40
:10C2A00088BF491C08447047F7C2FFFF6F0C0100AC
:10C2B000430B48F2376C03FB0CF330B41B0CDFF874
:10C2C00044C05C0203FB0C030F4858434FEA505C28
:10C2D00004EB0C0043F609541CFB04F404F5807CC9
:10C2E00043F60855A3EB5C2C2C440CF0FF0CB3EB8D
:10C2F000542F84BF4FF0000C401C086082F800C02F
:10C3000030BC7047F7C2FFFF6F0C01002DE9F0470A
:10C310000024DFF88090204D4FF480374FF4A07850
:10C320004FEA0406D5F8042307FA04F008EB840169
:10C3300002421AD0184A5258BAB16E50A10001F107
:10C34000804101F53041D1F84015D9F80020891A13
:10C3500021F07F41022902D3B1F5000F05D9C5F8BC
:10C360000803201DC0B2FFF7A7F9601CC4B2032C5C
:10C37000D8D3D5F8040128B1C5F80461074881680D
:10C38000491C81604FF0E0214FF40060C1F8800249
:10C39000BDE8F08704B5004000B000400000002078
:10C3A0002DE9F041384D2878042868D0A81C0122D6
:10C3B000017859B1012908BF6A7002D06978002953
:10C3C00058D002210170407800F02EFB2F4CD4F899
:10C3D00004034FF0000810F4002F4FF480774FF063
:10C3E000E0260AD02A48006838B1032000F01CFB80
:10C3F000C6F880720320FFF75FF9D4F8040310F445
:10C40000802F0AD02348006838B1022000F00CFBCE
:10C41000C6F880720220FFF74FF9D4F8040310F435
:10C42000003F0AD01C48006838B1012000F0FCFA37
:10C43000C6F880720120FFF73FF9D4F8040310F426
:10C44000803F08BFBDE8F08114480068002808BF9D
:10C45000BDE8F081002000F0E7FAC6F88072042001
:10C460002870C5F80480C4F80082BDE8F0410020BF
:10C47000FFF722B940F269516C2000F063FFBDE87C
:10C48000F0410720FFF718B90000002000800040AD
:10C490004C81004048810040448100404081004080
:10C4A000012211024FF0E0230020C3F8801103F5B0
:10C4B000C073BFF34F8FBFF36F8FC3F800110E49E6
:10C4C00041F8042F431EC1F80433C1F83C05C1F8FC
:10C4D0003C010A4BC3F84005C1F840011B1DC3F8DD
:10C4E0004005C1F844011B1DC3F84005C1F84801CF
:10C4F000CA600349487070470080004004800040D3
:10C5000000000020014800687047000004B50040AA
:10C510002DE9F05FDFF830810446A8F102070E46EE
:10C5200098F800C0D7E90410BCF1010F06D181EAE8
:10C5300004027040104308BFBDE8F09F4FF0404038
:10C54000424A10604FF4803ABCF1000F07BF4FF42D
:10C55000403300224FF4003301223D48C0F84833F5
:10C56000C0F8083300254FF4A079022A07D200BF93
:10C5700009EB8203C550521CD2B2022AF8D324F030
:10C580007F434FF4803BC0F808A3C0F848A3C0F82D
:10C590004051304AD2F80090A3EB090929F07F4AB4
:10C5A0004FF00109BAF1020F2ED3BAF5000F2BD8C4
:10C5B000C0F84035C0F844B3BCF1000F05D0106896
:10C5C000081A20F07F400228F9D3C7F804903D7084
:10C5D000FFF766FF2048D0F8041565F30101C0F8A5
:10C5E0000415D0F80825022161F30102C0F80825DE
:10C5F000102191FAA1F1B1FA81F1092909D940F28A
:10C60000553116A000F072FE40F2B2316C2000F0FD
:10C6100099FEC0F81015C0F80C907968C0F80012A7
:10C620004FF0E0204FF48071C0F88012C0F8001184
:10C630000D4980040860C7E90446042088F8010019
:10C6400088F80090BDE8F09F0200002008F5014046
:10C6500000B0004004B50040008000406E72665F8C
:10C6600074696D65722E680004F501402DE9F0478C
:10C67000314CD4E9042382EA000C4B405CEA03030A
:10C6800014BF01230023DFF8B4C09CF80080B8F188
:10C69000020F02D0002B3FD003E0002B08BFBDE803
:10C6A000F0876378BBB3264D4FF040432B60254E97
:10C6B0004FF4803520F07F432F46C6F80853C6F864
:10C6C00048530025C6F840511F4DD5F80090A3EB04
:10C6D000090929F07F49B9F1020F27D3B9F5000FF5
:10C6E00024D8C6F84035C6F84473B8F1000F05D019
:10C6F0002B68D31A23F07F43022BF9D3134D022268
:10C7000053072B60C4E9040104208CF801008CF865
:10C710000020BDE8F08704E04FF470716C2000F059
:10C7200011FE4FF471716C2000F00CFE4FF4747127
:10C730006C2000F007FE0000000000200200002036
:10C7400008F5014000B0004004B5004004F5014088
:10C750000149D1E904017047000000202DE9F047AC
:10C76000DFF8F4C09CF80040002C07BF4FF44032C3
:10C7700000214FF4003201213848C0F84823C0F8A6
:10C7800008230023022938BF4FF4A07507D200BF49
:10C7900005EB81028350491CC9B20229F8D3022C4F
:10C7A00004D040F2DB316C2000F0CCFDEFF31082BE
:10C7B00072B62B4CD0F80415D0F804512DB1A168F5
:10C7C000491CA160C0F80431F4E7A06802B962B660
:10C7D000020A0006401842EB0301D4E90428C01CF9
:10C7E00041F100011F4F01261F4D80EA020981EA35
:10C7F000080859EA08080ED0D7F80080A2EB08080C
:10C8000028F07F48B8F1040F05D3B8F5000F02D81F
:10C81000FFF77EFE1BE03868101A20F07F400228E8
:10C8200013D3B0F5000F10D810494FF080400860C6
:10C83000666023706E60EE604000091F086004208F
:10C840008CF801008CF8006001E06660237060687D
:10C85000C5F80002BDE8F0870200002000B00040EB
:10C860000000002004B500400080004008F50140B1
:10C8700010B4EFF3108472B60C4A0D494FF0000C5F
:10C88000D2F80405D2F804312BB18868401C8860C6
:10C89000C2F804C1F4E7896804B962B60A0A090655
:10C8A000081810BC42EB0C017047000000B00040BB
:10C8B000000000202DE9F041564A0125002492F89D
:10C8C00000C052784FF4A07607287DD2DFE800F050
:10C8D00004040404606060004F4BD3E90478FF4314
:10C8E00077EA080704BF5B78002B03D0BCF1020F86
:10C8F00005D026E04FF486616C2000F023FD131F65
:10C90000DBB206EB830303F1804606F530460023D5
:10C91000BCF1010F03D0BCF1020F08D00EE0042AD5
:10C9200024BF3768002F08BF4FF0004306E0042AF9
:10C9300024BF3768002F08BF43F0804313F0804FB7
:10C94000E5D1364B00F1100205FA02F2C3F80823D4
:10C950004FF0400C0CEB800C0CF0FF0C9C44CCF81E
:10C96000005003EB8000D0F840C5A1EB0C0C2CF07C
:10C970007F4CBCF1030F3EBFC0F840450020BDE82E
:10C98000F081C0F84015C3F804230120BDE8F08110
:10C99000BCF1000F06D0824204D14FF48A616C20B2
:10C9A00000F0D0FC001FC2B2032A04D34FF4277159
:10C9B0006C2000F0C7FC1A4B4FF480309040C3F855
:10C9C0000803C3F8480300E01FE006EB820C43F8BD
:10C9D0000C40DFF850C0DCF800C0A1EB0C0C2CF0D0
:10C9E0007F4CBCF1020F0DD3BCF5000F0AD803EB4E
:10C9F0008202C2F84015C3F80403C3F84403284672
:10CA0000BDE8F0812046BDE8F08140F254416C2041
:10CA100000F098FC02000020000000200080004090
:10CA200000B0004004B50040F8B5012100264FF4E5
:10CA3000A07707284AD2DFE800F00404040418189D
:10CA4000180000F1100201FA02F22349C1F808238C
:10CA500001EB80030022C3F8402507EB80028E50D3
:10CA60001E4951F820000090F8BD1D4D011FCCB2A9
:10CA7000297881B16A7882420DD11A4A4FF040403C
:10CA80001060012908BFFFF70BFD2E70164A4FF00A
:10CA9000FF30C2E9040015494FF48030A040C1F8CE
:10CAA0000803C1F84803A0000844D0F84005104A24
:10CAB0001268801A20F07F40022824BF07EB840010
:10CAC0000E500C4850F824000090F8BD40F2E241AE
:10CAD0006C2000F037FC00000080004040810040E6
